:10019D003F065B4F666D7D077F6F777C395E7971AA
:10016A00D2A17590FFC2A1D2A0E4F590C2A0D2AFED
:0E017A00D2A8D288AF081201AD7580F080F6D1
:0C01AD00D2A1EF90019D93F590C2A12219
:0301C500DFFE2238
:10018800AE07AF061EEF600C7FF51201C57FF512B2
:0501980001C580EE220C
:100006007580F0E58064F070030200A87F0A120193
:1000160088E58064F070030200A87580FEE58064C0
:10002600FE6019E58054F0240EFDE580B4FEFB7FEA
:100036000A120188E580B4FEFBAF05227580FDE556
:100046008064FD6019E58054F0240DFDE580B4FD63
:10005600FB7F0A120188E580B4FDFBAF052275809F
:10006600FBE58064FB6019E58054F0240BFDE58018
:10007600B4FBFB7F0A120188E580B4FBFBAF0522C7
:100086007580F7E58064F76019E58054F02407FD74
:10009600E580B4F7FB7F0A120188E580B4F7FBAF71
:0400A60005227FFFB1
:0100AA002233
:1000AB00120006EF12014400EF7700EC7B00E97DB4
:1000BB0000E67E00FBB700F8BB00F5BD00F2BE0109
:1000CB0007D70104DB0101DD00FEDE0113E70110A0
:1000DB00EB010DED010AEE000001167F00227F01FE
:1000EB00227F02227F03227F04227F05227F0622AA
:1000FB007F07227F08227F09227F0A227F0B227F24
:0E010B000C227F0D227F0E227F0F227FFF220B
:03000300020119DE
:10011900C0E0C083C082C0D075D000C000C005C097
:1001290006C0071200AB8F08C289D007D006D005D8
:0B013900D000D0D0D082D083D0E032C4
:030000000201B941
:0C01B900787FE4F6D8FD75810802016A29
:10014400D083D082F8E4937012740193700DA3A34A
:1001540093F8740193F5828883E47374029368605E
:06016400EFA3A3A380DF5E
:00000001FF
