:030F9900DFFE2256
:100F5300AE07AF061EEF600C7FF5120F997FF512F7
:050F63000F9980EE2251
:10080000207374632D353120B5A5C6ACBBFA20200A
:1008100000B2A9D0BEB5E7D7D3BCBCCAF5C2DBCC09
:10082000B300D0C4D3D0C3CDBBA2CFB8D0E1C7BE34
:10083000DEB10077656C636F6D6520B2E2CAD4B338
:10084000CCD0F2002020D7A8D7A2B3C9BECDD7A85C
:10085000D2B52020002020D7A8D2B5B3C9BECDCABA
:10086000C2D2B5202000B2A9D0BEB5E7D7D3B3CF4E
:10087000D0C5CEAAB1BE00CED2C3C7BBE1D2BBD6D3
:10088000B1C5ACC1A62120000FF010082004400221
:100890009C39BE7D8001800180018811842143C282
:1008A000200410080FF00000FFFFFFFFFFFFFFFF15
:1008B000FFFFFFFFFFFFFFFFFFFFFFFFFFFFFFFF48
:1008C000FFFFFFFFFFFFFFFFC00000000000000070
:1008D0000000000000000003C00000000000000055
:1008E0000000000000000003C00000000000000045
:1008F0000000000000000003C00000000000000035
:100900000000000000000003C00000000000000024
:100910000000000000000003C00000000000000014
:100920000000000000000003C01FFF81FFF0000076
:100930000000000000000003C01FFF81FFF0000066
:100940000000000000000003C0180180000000004B
:100950000000200800000003C01FFF800000040703
:1009600081E0101003C03003C01FFF8000000C0C9A
:10097000C33008200CE07003C0180187FFFE3C184C
:10098000661804400C607003C01FFF87FFFE0C1840
:10099000661802801800B003C01FFF8006000C1804
:1009A000661801001B813003C001980006000C008E
:1009B000E33002801CC13003C019998066600C00CE
:1009C000C1E0044018623003C019998066300C0100
:1009D0008330082018663003C00D9B00C6380C0316
:1009E000061810101867FC03C00D9B01C61C0C06EE
:1009F0000618200818603003C0019803860C0C0C00
:100A00000618000008603003C07FFFE306000C18E2
:100A1000033000000CC03003C07FFFE01E000C1F3D
:100A2000E1E0000007803003C00000001C0000006F
:100A30000000000000000003C000000000000000F3
:100A40000000000000000003C000000000000000E3
:100A50000000000000000003C000000000000000D3
:100A60000000000000000003C000000000000000C3
:100A70000000000000000003C000000000000000B3
:100A80000000000000000003C000000000000000A3
:100A90000000000000000003C00000000000000093
:100AA0000000000000000003C000000000000C0077
:100AB0000018000000060C03C3FFFC3FF0800C0090
:100AC0003F1801FFFE060C03C3FFFC3FF1800FFC43
:100AD0003F1801FFFE060C03C30C0C0CC3000FFCF7
:100AE000337FE18606060C03C31FCC0CC6000C0046
:100AF000337FE18FE6060C03C33FCC0CCC000C0027
:100B00003630019FE607FFE3C3798C0CC800FFF085
:100B1000363601BCC607FFE3C36F0C7FF0C0FFF0A1
:100B2000366601B786060003C30F0C7FF180C03024
:100B3000367FC18786060003C379EC0CC300C03042
:100B4000337FC1BCF6060003C376EC0CC600C03090
:100B5000330601BB7607FF03C3070C0CCC20FFF064
:100B6000330601838607FF03C3030C18C860FFF038
:100B70003F06018186060303C31C0C18C0C0000099
:100B80003EFFE18E06060303C31F0C18C181B18C22
:100B900030FFE18F86060303C3030C30C701B18C1D
:100BA00030060181860C0303C3FFFC70DE0318C608
:100BB000300601FFFE0C0303C3FFFC20180318C618
:100BC000300601FFFE180303C00000000000000013
:100BD0000000000000000003C00000000000000052
:100BE0000000000000000003C00000000000000042
:100BF0000000000000000003C00000000000000032
:100C00000000000000000003C00000000000000021
:100C10000000000000000003C00000000000000011
:100C20000000000000000003C00000000000000001
:100C30000000000000000003C000000000000000F1
:100C40000000000000000003C000000000000000E1
:100C50000000000000000003C000000000000000D1
:100C60000000000000000003C000000000000000C1
:100C70000000000000000003C000000000000000B1
:100C80000000000000000003FFFFFFFFFFFFFFFF69
:100C9000FFFFFFFFFFFFFFFFFFFFFFFFFFFFFFFF64
:080CA000FFFFFFFFFFFFFFFF54
:100F6800C2A4D2A5D2A67580FFE58020E7FBC2A661
:010F78002256
:100F3C00120F68C2A4C2A5D2A68F807F05120F998A
:070F4C00C2A67F05020F9908
:090F1C00850A82850983E493FF34
:100F2500120F68D2A4C2A5D2A68F807F05120F9991
:070F3500C2A67F05020F991F
:100E9B007F28120F53D2A17F01120F53C2A37F01E0
:100EAB00120F53D2A37F0A120F537F30120F3C7FC6
:100EBB0032120F997F30120F3C7F14120F997F0C57
:100ECB00120F3C7F32120F997F01120F3C7F0F12D2
:0C0EDB000F537F06120F3C7F32020F996C
:100DF6007F30120F3C7F40120F3CE4F509F50AE5FF
:100E06000A25E0FFE50933FE74882FF58274083E53
:100E1600F583E493FF120F25E50A25E0FFE5093384
:100E2600FE74892FF58274083EF583E493FF120F52
:100E360025050AE50A70020509C39410E5096480D0
:040E4600948040BB99
:010E4A002285
:100EE7008F09ED24FE60101460131460162403703C
:100EF7001AE50924808010E5092490800AE5092471
:100F0700888004E5092498FF120F3CE4FF120F259F
:050F1700E4FF020F25BC
:100E4B008F098A0A8B0BED24FE601014601314605B
:100E5B00162403701AE50924808010E5092490807C
:100E6B000AE50924888004E5092498FF120F3C85C4
:100E7B000B82850A83E493FFD394004012120F2553
:100E8B00050BE50B7002050A7F32120F9980E022E9
:0A0F85007F01120F3C7F0F020F5393
:040D61008E098F0A5E
:100D6500E4F50BF50CE50C2480FF120F3C7F801297
:100D75000F3CE4F50DF50E120F1C050AE50A70028D
:100D85000509050EE50E7002050DC39410E50D6409
:100D950080948040E2050CE50C7002050BC394209D
:100DA500E50B6480948040BDE4F50BF50CE50C245F
:100DB50080FF120F3C7F88120F3CE4F50DF50E12F3
:100DC5000F1C050AE50A70020509050EE50E7002FD
:100DD500050DC39410E50D6480948040E2050CE593
:100DE5000C7002050BC39420E50B6480948040BD14
:010DF50022DB
:0A0F8F007F36120F3C7F14020F9909
:100CA800120DF6120E9B7A087B007D01E4FF120EEE
:100CB8004B7A087B117D02E4FF120E4B7A087B22E7
:100CC8007D03E4FF120E4B7A087B337D04E4FF12A8
:100CD8000E4B7D017F07120EE7E4F5087FC8120F5F
:100CE800530508E508C3941E40F27A087B447D0149
:100CF800E4FF120E4B7A087B557D02E4FF120E4B7F
:100D08007A087B667D03E4FF120E4B7A087B777DB9
:100D180004E4FF120E4B7D01E4FF120EE77D02E4AE
:100D2800FF120EE7E4F5087FC8120F530508E5081F
:100D3800C3941E40F2120F85120F8F7E087FA812EF
:100D48000D61E4F5087FC8120F530508E508C39440
:090D58001440F2120F85020CABED
:03000000020F7973
:0C0F7900787FE4F6D8FD75810E020CA80C
:00000001FF
