:0F08EF0049206C6F7665203531206D63752000D0
:07091400AE071FEE70FA228E
:1008B900AD07AF051DEF600C7FF51209147FF51226
:0508C900091480EE227D
:1008DF007580FFC2A4D2A5C2A600D2A6E58033229E
:0C086B007F381208777F051208B97F382B
:100877001208DF40FBC2A4C2A5D2A68F8000C2A681
:01088700224E
:1008CE001208DF40FBD2A4C2A5D2A68F8000C2A61A
:0108DE0022F7
:0A090A007F011208777F050208B98B
:10080000AE07ED7005EE24808003EE24C0FF1208D1
:1008100077120888FF600C1208CE740129F9E43AB7
:04082000FA80EE224A
:1008A100AE07AC03ED7005EE24808003EE24C0FF9B
:0808B100120877AF040208CE23
:1008480012086B7F051208B912086B7F0812087727
:100858007F011208777F061208771F1208B97F0CEC
:030868000208770C
:1008240012084812090A7B6FE4FD7F071208A17BB6
:100834006B7F081208A17BFF7A0879EF0D7F011204
:04084400080080FE2A
:030000000208FEF5
:0C08FE00787FE4F6D8FD7581070208241D
:10088800BB010689828A83E0225002E722BBFE026E
:09089800E32289828A83E49322A1
:00000001FF
