:0F08F90049206C6F7665203531206D63752000C6
:03091E00DFFE22D7
:1008C300AE07AF061EEF600C7FF512091E7FF5120F
:0508D300091E80EE2269
:1008E9007580FFC2A4D2A5C2A600D2A6E580332294
:0C0875007F381208817F051208C37F380D
:100881001208E940FBC2A4C2A5D2A68F8000C2A66D
:010891002244
:1008D8001208E940FBD2A4C2A5D2A68F8000C2A606
:0108E80022ED
:0A0914007F011208817F050208C36D
:10082E00AE07ED7005EE24808003EE24C0FF1208A3
:10083E0081120892FF600C1208D8740129F9E43A6B
:04084E00FA80EE221C
:1008AB00AE07AC03ED7005EE24808003EE24C0FF91
:0808BB00120881AF040208D805
:100852001208757F051208C31208757F08120881F5
:100862007F011208817F061208811F1208C37F0CC4
:03087200020881F8
:100800001208521209147B6FE4FD7F071208AB7BBC
:100810006B7F081208AB7BFF7A0879F90D7F011214
:0E082000082E7FC81208C37F1812088180F4CA
:03000000020908EA
:0C090800787FE4F6D8FD75810702080036
:10089200BB010689828A83E0225002E722BBFE0264
:0908A200E32289828A83E4932297
:00000001FF
