:100101003F065B4F666D7D077F6F777C395E797146
:1000D000D2A1E4F590C2A1D2A0F590C2A012000373
:0C00E0008F08E508F460F612011180F1B1
:0C011100D2A1EF90010193F590C2A12251
:1000710075B00FE5B0540FF509640F60297F0A12BE
:1000810000ECE5B0540F640F601CE5B0540FF509A6
:1000910044F0F5B0E5B054F0FFE5B054F0FEBEF029
:0800A100F8E5092FFF227FFFA3
:0100A9002234
:10000300120071EF1200AA00477700447B00417D84
:10001300003E7E0053B70050BB004DBD004ABE00FA
:100023005FD7005CDB0059DD0056DE006BE700683C
:10003300EB0065ED0062EE0000006E7F00227F01A1
:10004300227F02227F03227F04227F05227F062252
:100053007F07227F08227F09227F0A227F0B227FCC
:0E0063000C227F0D227F0E227F0F227FFF22B4
:03012900DFFE22D4
:1000EC00AE07AF061EEF600C7FF51201297FF512EB
:0500FC00012980EE2245
:0300000002011DDD
:0C011D00787FE4F6D8FD7581090200D05F
:1000AA00D083D082F8E4937012740193700DA3A3E5
:1000BA0093F8740193F5828883E4737402936860F9
:0600CA00EFA3A3A380DFF9
:00000001FF
