:0A0B9C000808140A06050C370006CD
:070AD000120AD7AD177F8A5F
:100AD700D2965307FEE4FEEF30E004D2958002C2BF
:100AE70095D294C294EFC313FF0EBE08EAE4FEED5D
:100AF70030E004D2958002C295D294C294EDC3131C
:070B0700FD0EBE08EAC296D4
:010B0E0022C4
:100B0F00D296430701E4FDEF30E004D2958002C294
:100B1F0095D294C294EFC313FF0DBD08EAE4FDEE26
:100B2F00C313FE309505430680800353067FD2948E
:0A0B3F00C2940DBD08E9C296AF068E
:010B49002289
:10097800E4FF74082FF8E6FE75F00A84FDEE75F0C2
:100988000A8474102FF8A6F0EDC454F0FE74102FEA
:10099800F8EE26F60FBF08DAE4FD7F8E120AD77D3F
:1009A800807F80120AD7AD117F8C120AD7AD127FD3
:1009B80088120AD7AD137F86120AD0AD147F84122D
:1009C8000AD7AD157F82120AD7AD167F80120AD0DA
:0709D8007D807F8E020AD72B
:1009DF007F8C120B0F8F117F88120B0F8F127F8658
:1009EF00120B0F8F137F84120B0F8F147F82120B3A
:1009FF000F8F157F80120B0FEF547FF5167F8A1222
:100A0F000B0F8F17E4FF74102FF8E6FEC4540FFD81
:100A1F00EE540FFE74082FF8A606ED75F00AA4FE2B
:0B0A2F0074082FF8EE26F60FBF08DB5E
:010A3A002299
:0B0BAA00C296C294E4FD7F80020AD7CF
:100B8A003F065B4F666D7D077F6FFEFDFBF7EFDF6C
:020B9A00BF7F1B
:030BA6000121002A
:10080000120BB5120BAA120978120A3BBF010A0596
:1008100018E518B40303E4F5183000EDC20012091E
:10082000DFE518703EE50C75F00A84900B8A93F5AD
:1008300024E50C75F00A84E5F093F525752640E56E
:100840000D75F00A8493F527E50D75F00A84E5F03F
:1008500093F528752940E50E75F00A8493F52AE58D
:100860000E8042E51864017048E50975F00A84902D
:100870000B8A93F524E50975F00A84E5F093F525D4
:10088000752640E50A75F00A8493F527E50A75F0A8
:100890000A84E5F093F528752940E50B75F00A8484
:1008A00093F52AE50B75F00A84E5F093F52B020821
:1008B00009E51864026003020809752440E50F7514
:1008C000F00A84E5F0900B8A93F525752640E4F54F
:1008D00027F528F529E50E75F00A8493F52AE50E2B
:0C08E00075F00A84E5F093F52B0208097E
:030BBF00DFFE2234
:100B7500AE07AF061EEF600C7FF5120BBF7FF512B7
:050B85000BBF80EE2211
:100B4A00E4F580D2A2C2A2E5212F900B9493F580FE
:100B5A00D2A3C2A374242521F8E6F580D2A2C2A2A8
:0A0B6A000521E521B50503E4F5219E
:010B7400225E
:0A0BB500438901D2AFD2A9D28C22ED
:03000B00020A8F57
:100A8F00C0E0C083C082C0D075D000C000C005C018
:010A9F00074F
:100AA000758CF8758A307D08E4FF120B4A0523E542
:100AB0002370020522643245227006F522F523D206
:010AC0000035
:0F0AC100D007D005D000D0D0D082D083D0E03283
:100A3B00E5B0F4604C7F0A120B75E5B0F46042AF81
:100A4B00B0E5B0B4FFFBEF2481603024C0602924F3
:100A5B00E0602224F0601B24F8601424FC600D2459
:100A6B00FE60061470187F01227F02227F03227F13
:100A7B0004227F05227F06227F07227F08227F0028
:030A8B00227F00C7
:010A8E002245
:030000000208EC07
:0C08EC00787FE4F6D8FD75812B020933FB
:1008F800020800E493A3F8E493A34003F68001F20E
:1009080008DFF48029E493A3F85407240CC8C33300
:10091800C4540F4420C8834004F456800146F6DFCF
:10092800E4800B0102040810204080900B9CE47EB8
:10093800019360BCA3FF543F30E509541FFEE493C4
:10094800A360010ECF54C025E060A840B8E493A38B
:10095800FAE493A3F8E493A3C8C582C8CAC583CAB6
:10096800F0A3C8C582C8CAC583CADFE9DEE780BE6E
:010BA900004B
:00000001FF
