:1008F90049206C6F7665203531206D637500686518
:050909006C6C6F210081
:03094500DFFE22B0
:1008E400AE07AF061EEF600C7FF51209457FF512C7
:0508F400094580EE2221
:10091F007580FFC2A4D2A5C2A600D2A6E58033225D
:0C0896007F381208A27F051208E47F38AA
:1008A20012091F40FBC2A4C2A5D2A68F8000C2A615
:0108B2002223
:10090E0012091F40FBD2A4C2A5D2A68F8000C2A698
:01091E0022B6
:0A093B007F011208A27F050208E404
:10084F00AE07ED7005EE24808003EE24C0FF120882
:10085F00A21208B3FF600C12090E740129F9E43AD1
:04086F00FA80EE22FB
:1008CC00AE07AC03ED7005EE24808003EE24C0FF70
:0808DC001208A2AF0402090E8C
:100873001208967F051208E41208967F081208A250
:100883007F011208A27F061208A21F1208E47F0C40
:030893000208A2B6
:100800001208737508017509FF750A08750BF9124E
:10081000093B7BFF7A097907E4FD7F0212084F80CC
:1008200020AB09AA0AA90B1208B3FB601B7D01AF1C
:10083000081208CC05087401250BF50BE4350AF500
:0F0840000A7FFA1208E480D97FFA1208E480B424
:0300000002092FC3
:0C092F00787FE4F6D8FD75810B0208000B
:1008B300BB010689828A83E0225002E722BBFE0243
:0908C300E32289828A83E4932276
:00000001FF
