:1008AD000808FEFDFBF7EFDFBF7F081000003E419B
:0408BD0041413E0077
:0C08C200E4FFE4FE0EBE14FC0FBF1EF6A7
:0108CE002207
:10088C00E4FD74082DF8E6F590D2A1C2A174102DE8
:10089C00F8E6F590D2A0C2A01208C20DBD08E38004
:0108AC00DF6C
:03000000020800F3
:0C080000787FE4F6D8FD758117020847E8
:10080C0002088CE493A3F8E493A34003F68001F26E
:10081C0008DFF48029E493A3F85407240CC8C333ED
:10082C00C4540F4420C8834004F456800146F6DFBC
:10083C00E4800B01020408102040809008ADE47E97
:10084C00019360BCA3FF543F30E509541FFEE493B1
:10085C00A360010ECF54C025E060A840B8E493A378
:10086C00FAE493A3F8E493A3C8C582C8CAC583CAA3
:10087C00F0A3C8C582C8CAC583CADFE9DEE780BE5B
:0108C1000036
:00000001FF
